{
  "_format": "hh-sol-artifact-1",
  "contractName": "Bank",
  "sourceName": "contracts/Lock.sol",
  "abi": [
    {
      "inputs": [
        {
          "internalType": "address",
          "name": "",
          "type": "address"
        }
      ],
      "name": "accountExists",
      "outputs": [
        {
          "internalType": "bool",
          "name": "",
          "type": "bool"
        }
      ],
      "stateMutability": "view",
      "type": "function"
    },
    {
      "inputs": [
        {
          "internalType": "address",
          "name": "",
          "type": "address"
        }
      ],
      "name": "accounts",
      "outputs": [
        {
          "internalType": "uint256",
          "name": "balance",
          "type": "uint256"
        },
        {
          "internalType": "address",
          "name": "accountNumber",
          "type": "address"
        },
        {
          "internalType": "string",
          "name": "name",
          "type": "string"
        }
      ],
      "stateMutability": "view",
      "type": "function"
    },
    {
      "inputs": [
        {
          "internalType": "string",
          "name": "_name",
          "type": "string"
        }
      ],
      "name": "createAccount",
      "outputs": [],
      "stateMutability": "nonpayable",
      "type": "function"
    },
    {
      "inputs": [
        {
          "internalType": "uint256",
          "name": "_amount",
          "type": "uint256"
        }
      ],
      "name": "deposit",
      "outputs": [],
      "stateMutability": "payable",
      "type": "function"
    },
    {
      "inputs": [
        {
          "internalType": "address",
          "name": "_to",
          "type": "address"
        },
        {
          "internalType": "uint256",
          "name": "_amount",
          "type": "uint256"
        }
      ],
      "name": "transfer",
      "outputs": [],
      "stateMutability": "nonpayable",
      "type": "function"
    },
    {
      "inputs": [
        {
          "internalType": "uint256",
          "name": "_amount",
          "type": "uint256"
        }
      ],
      "name": "withdraw",
      "outputs": [],
      "stateMutability": "nonpayable",
      "type": "function"
    }
  ],
  "bytecode": "0x608060405234801561001057600080fd5b50611203806100206000396000f3fe6080604052600436106100555760003560e01c8063298daf5b1461005a5780632e1a7d4d146100835780635e5c06e2146100ac57806375cd51ed146100eb578063a9059cbb14610128578063b6b55f2514610151575b600080fd5b34801561006657600080fd5b50610081600480360381019061007c919061098e565b61016d565b005b34801561008f57600080fd5b506100aa60048036038101906100a59190610a0d565b61032e565b005b3480156100b857600080fd5b506100d360048036038101906100ce9190610a98565b610454565b6040516100e293929190610b62565b60405180910390f35b3480156100f757600080fd5b50610112600480360381019061010d9190610a98565b610526565b60405161011f9190610bbb565b60405180910390f35b34801561013457600080fd5b5061014f600480360381019061014a9190610bd6565b610546565b005b61016b60048036038101906101669190610a0d565b61070a565b005b600160003373ffffffffffffffffffffffffffffffffffffffff1673ffffffffffffffffffffffffffffffffffffffff16815260200190815260200160002060009054906101000a900460ff16156101fa576040517f08c379a00000000000000000000000000000000000000000000000000000000081526004016101f190610c62565b60405180910390fd5b6040518060600160405280600081526020013373ffffffffffffffffffffffffffffffffffffffff168152602001828152506000803373ffffffffffffffffffffffffffffffffffffffff1673ffffffffffffffffffffffffffffffffffffffff1681526020019081526020016000206000820151816000015560208201518160010160006101000a81548173ffffffffffffffffffffffffffffffffffffffff021916908373ffffffffffffffffffffffffffffffffffffffff16021790555060408201518160020190816102d09190610e8e565b5090505060018060003373ffffffffffffffffffffffffffffffffffffffff1673ffffffffffffffffffffffffffffffffffffffff16815260200190815260200160002060006101000a81548160ff02191690831515021790555050565b806000803373ffffffffffffffffffffffffffffffffffffffff1673ffffffffffffffffffffffffffffffffffffffff1681526020019081526020016000206000015410156103b2576040517f08c379a00000000000000000000000000000000000000000000000000000000081526004016103a990610fac565b60405180910390fd5b806000803373ffffffffffffffffffffffffffffffffffffffff1673ffffffffffffffffffffffffffffffffffffffff16815260200190815260200160002060000160008282546104039190610ffb565b925050819055503373ffffffffffffffffffffffffffffffffffffffff166108fc829081150290604051600060405180830381858888f19350505050158015610450573d6000803e3d6000fd5b5050565b60006020528060005260406000206000915090508060000154908060010160009054906101000a900473ffffffffffffffffffffffffffffffffffffffff16908060020180546104a390610cb1565b80601f01602080910402602001604051908101604052809291908181526020018280546104cf90610cb1565b801561051c5780601f106104f15761010080835404028352916020019161051c565b820191906000526020600020905b8154815290600101906020018083116104ff57829003601f168201915b5050505050905083565b60016020528060005260406000206000915054906101000a900460ff1681565b600160008373ffffffffffffffffffffffffffffffffffffffff1673ffffffffffffffffffffffffffffffffffffffff16815260200190815260200160002060009054906101000a900460ff166105d2576040517f08c379a00000000000000000000000000000000000000000000000000000000081526004016105c9906110a1565b60405180910390fd5b806000803373ffffffffffffffffffffffffffffffffffffffff1673ffffffffffffffffffffffffffffffffffffffff168152602001908152602001600020600001541015610656576040517f08c379a000000000000000000000000000000000000000000000000000000000815260040161064d9061110d565b60405180910390fd5b806000803373ffffffffffffffffffffffffffffffffffffffff1673ffffffffffffffffffffffffffffffffffffffff16815260200190815260200160002060000160008282546106a79190610ffb565b92505081905550806000808473ffffffffffffffffffffffffffffffffffffffff1673ffffffffffffffffffffffffffffffffffffffff16815260200190815260200160002060000160008282546106ff919061112d565b925050819055505050565b600160003373ffffffffffffffffffffffffffffffffffffffff1673ffffffffffffffffffffffffffffffffffffffff16815260200190815260200160002060009054906101000a900460ff16610796576040517f08c379a000000000000000000000000000000000000000000000000000000000815260040161078d90610c62565b60405180910390fd5b803410156107d9576040517f08c379a00000000000000000000000000000000000000000000000000000000081526004016107d0906111ad565b60405180910390fd5b806000803373ffffffffffffffffffffffffffffffffffffffff1673ffffffffffffffffffffffffffffffffffffffff168152602001908152602001600020600001600082825461082a919061112d565b9250508190555050565b6000604051905090565b600080fd5b600080fd5b600080fd5b600080fd5b6000601f19601f8301169050919050565b7f4e487b7100000000000000000000000000000000000000000000000000000000600052604160045260246000fd5b61089b82610852565b810181811067ffffffffffffffff821117156108ba576108b9610863565b5b80604052505050565b60006108cd610834565b90506108d98282610892565b919050565b600067ffffffffffffffff8211156108f9576108f8610863565b5b61090282610852565b9050602081019050919050565b82818337600083830152505050565b600061093161092c846108de565b6108c3565b90508281526020810184848401111561094d5761094c61084d565b5b61095884828561090f565b509392505050565b600082601f83011261097557610974610848565b5b813561098584826020860161091e565b91505092915050565b6000602082840312156109a4576109a361083e565b5b600082013567ffffffffffffffff8111156109c2576109c1610843565b5b6109ce84828501610960565b91505092915050565b6000819050919050565b6109ea816109d7565b81146109f557600080fd5b50565b600081359050610a07816109e1565b92915050565b600060208284031215610a2357610a2261083e565b5b6000610a31848285016109f8565b91505092915050565b600073ffffffffffffffffffffffffffffffffffffffff82169050919050565b6000610a6582610a3a565b9050919050565b610a7581610a5a565b8114610a8057600080fd5b50565b600081359050610a9281610a6c565b92915050565b600060208284031215610aae57610aad61083e565b5b6000610abc84828501610a83565b91505092915050565b610ace816109d7565b82525050565b610add81610a5a565b82525050565b600081519050919050565b600082825260208201905092915050565b60005b83811015610b1d578082015181840152602081019050610b02565b60008484015250505050565b6000610b3482610ae3565b610b3e8185610aee565b9350610b4e818560208601610aff565b610b5781610852565b840191505092915050565b6000606082019050610b776000830186610ac5565b610b846020830185610ad4565b8181036040830152610b968184610b29565b9050949350505050565b60008115159050919050565b610bb581610ba0565b82525050565b6000602082019050610bd06000830184610bac565b92915050565b60008060408385031215610bed57610bec61083e565b5b6000610bfb85828601610a83565b9250506020610c0c858286016109f8565b9150509250929050565b7f4163636f756e7420616c7265616479206578697374732e000000000000000000600082015250565b6000610c4c601783610aee565b9150610c5782610c16565b602082019050919050565b60006020820190508181036000830152610c7b81610c3f565b9050919050565b7f4e487b7100000000000000000000000000000000000000000000000000000000600052602260045260246000fd5b60006002820490506001821680610cc957607f821691505b602082108103610cdc57610cdb610c82565b5b50919050565b60008190508160005260206000209050919050565b60006020601f8301049050919050565b600082821b905092915050565b600060088302610d447fffffffffffffffffffffffffffffffffffffffffffffffffffffffffffffffff82610d07565b610d4e8683610d07565b95508019841693508086168417925050509392505050565b6000819050919050565b6000610d8b610d86610d81846109d7565b610d66565b6109d7565b9050919050565b6000819050919050565b610da583610d70565b610db9610db182610d92565b848454610d14565b825550505050565b600090565b610dce610dc1565b610dd9818484610d9c565b505050565b5b81811015610dfd57610df2600082610dc6565b600181019050610ddf565b5050565b601f821115610e4257610e1381610ce2565b610e1c84610cf7565b81016020851015610e2b578190505b610e3f610e3785610cf7565b830182610dde565b50505b505050565b600082821c905092915050565b6000610e6560001984600802610e47565b1980831691505092915050565b6000610e7e8383610e54565b9150826002028217905092915050565b610e9782610ae3565b67ffffffffffffffff811115610eb057610eaf610863565b5b610eba8254610cb1565b610ec5828285610e01565b600060209050601f831160018114610ef85760008415610ee6578287015190505b610ef08582610e72565b865550610f58565b601f198416610f0686610ce2565b60005b82811015610f2e57848901518255600182019150602085019450602081019050610f09565b86831015610f4b5784890151610f47601f891682610e54565b8355505b6001600288020188555050505b505050505050565b7f496e73756666696369656e742062616c616e6365000000000000000000000000600082015250565b6000610f96601483610aee565b9150610fa182610f60565b602082019050919050565b60006020820190508181036000830152610fc581610f89565b9050919050565b7f4e487b7100000000000000000000000000000000000000000000000000000000600052601160045260246000fd5b6000611006826109d7565b9150611011836109d7565b925082820390508181111561102957611028610fcc565b5b92915050565b7f44657374696e6174696f6e206164647265737320646f6573206e6f742065786960008201527f7374732e00000000000000000000000000000000000000000000000000000000602082015250565b600061108b602483610aee565b91506110968261102f565b604082019050919050565b600060208201905081810360008301526110ba8161107e565b9050919050565b7f496e73756666696369656e742062616c616e636520746f207472616e73666572600082015250565b60006110f7602083610aee565b9150611102826110c1565b602082019050919050565b60006020820190508181036000830152611126816110ea565b9050919050565b6000611138826109d7565b9150611143836109d7565b925082820190508082111561115b5761115a610fcc565b5b92915050565b7f496e73756666696369656e742045544820696e20616464726573732e00000000600082015250565b6000611197601c83610aee565b91506111a282611161565b602082019050919050565b600060208201905081810360008301526111c68161118a565b905091905056fea2646970667358221220d4845747cbccd1d1d40d50d7f9f7b1ab2f72faf025c7157f4c7e55c50343ff5864736f6c63430008180033",
  "linkReferences": {},
  "deployedLinkReferences": {}
}